:10000000E3C1000012C2000010C200000EC20000D6
:100010000CC200000AC2000008C2000006C20000B4
:1000200004C2000077C4000075C4000073C400005F
:10003000FCC10000FAC10000F8C10000F6C10000D8
:10004000F4C10000F2C10000F0C10000EEC10000E8
:10005000ECC10000EAC10000E8C100000C94BD231F
:10006000E4C100000C9494190C946B19DEC10000DB
:10007000DCC10000DAC10000D8C10000D6C1000018
:10008000D4C10000D2C10000D0C10000CEC1000028
:10009000CCC10000CAC10000C8C100000C94CA193C
:1000A000C4C10000C2C10000C0C10000BEC1000048
:1000B000BCC10000BAC10000B8C10000B6C1000058
:1000C000B4C10000B2C10000B0C10000AEC1000068
:1000D000ACC10000AAC10000A8C10000A6C1000078
:1000E000A4C100002F143C14491458146514721450
:1000F0007F148C147420772066206A206E20AE2036
:100100007B207F20852089208D20932097209B2095
:10011000AE20A120A520A92007634236B79BD8A70F
:100120001A39685618AEBAAB558C1D3CB7CC57631C
:10013000BD6DEDFD753EF6177231BF000000803FCA
:1001400008000000BE922449123EABAAAA2ABECDE6
:10015000CCCC4C3E00000080BEABAAAAAA3E000058
:100160000000BF000000803F000000000008417850
:10017000D3BB4387D1133D190E3CC3BD4282AD2B87
:100180003E68EC8276BED98FE1A93E4C80EFFFBE7F
:1001900001C4FF7F3F000000000000407A10F35AC6
:1001A00000A0724E18090010A5D4E80000E87648B7
:1001B000170000E40B54020000CA9A3B000000E163
:1001C000F505000080969800000040420F000000F6
:1001D000A08601000000102700000000E8030000D6
:1001E00000006400000000000A00000000000100A0
:1001F000000000002C76D888DC674F0823DFC1DFC1
:10020000AE59E1B1B796E5E3E453C63AE6519976C3
:1002100096E8E6C28426EB898C9B62ED407C6FFCFD
:10022000EFBC9C9F40F2BAA56FA5F490055A2AF73F
:100230005C936B6CF9676DC11BFCE0E40D47FEF548
:1002400020E6B500D0ED902E0300943577050080B0
:10025000841E080000204E0A000000C80C3333330F
:10026000330F986E12831141EF8D2114893BE655AF
:1002700016CFFEE6DB18D1844B381BF77C1D901D92
:10028000A4BBE424203284725E228100C9F124ECF4
:10029000A1E53D277C3C3E5E2B3D3F2F5B5D3B2C2B
:1002A0002A225C00000020002300260029002C00E8
:1002B0002F003200000100000301060109010000C7
:1002C0002200250028002B002E00310034000201FE
:1002D0000000050108010B010505050507050808D3
:1002E0000808020202020A0A0808040404040101C0
:1002F00001010101010103030303030303030407D5
:1003000007070C0C0C0C0C0C0C0C0202020206066B
:100310000606060606060B0B0B0B0B0B0B0B01025E
:100320001020200808102040102040800201020107
:1003300008040201010204081020408080402010BF
:100340000804020180040201804020100804020118
:100350000804020101020408102040800102040880
:100360001020408000002100240027002A002D00DA
:100370003000330001010000040107010A01000000
:100380000A0B02090C0D0E0807030401000000000F
:10039000000000000000000000000000000000005D
:1003A000000000000000000000001211100000001A
:1003B000000000000000000000000000000000003D
:1003C00000000000DA35533511241FBECFEFD1E213
:1003D000DEBFCDBF00E00CBF2BE0A4EEB4E001C057
:1003E0001D92A237B207E1F714E0A0E0B2E0E8E91D
:1003F000F6E800E00BBF02C007900D92A43EB107E3
:10040000D9F711E0C3EED1E000E006C02197010961
:10041000802FFE010E94EE3DC23ED10780E008071A
:10042000A9F70E9407240C943B43EACDDC015996BE
:10043000ED91FC915A973097B9F083899489A589F9
:10044000B6894285538564857585841B950BA60BFB
:10045000B70B811520E89207A105B10538F08FEFA1
:100460009FE7A0E0B0E0089580E090E00895CF938A
:10047000DF931F92CDB7DEB76983DC01ED91FC916C
:100480000280F381E02D41E050E0BE016F5F7F4FBD
:1004900019950F90DF91CF9108952091B506309175
:1004A000B6062817390771F49091620B8091630B9F
:1004B000981741F0E091620BF0E0ED58F94F808120
:1004C00090E008958FEF9FEF08951F93CF93DF93F0
:1004D000DC015C968D919C915D97009739F421E049
:1004E00030E013963C932E9312973BC05196ED91BA
:1004F000FC91529750962C915097322F30951FB700
:100500005E964C915E97742F727041FD6095F894E1
:100510004081772311F0422B01C043234083EC013B
:100520002197F1F748E0508160FF02C0522B01C0D3
:1005300053235083EC012197F1F76695415099F7C9
:100540008081772319F08323808302C0282B2083A6
:100550001FBF5C968D919C915D970197F1F781E0AB
:1005600090E0DF91CF911F9108952091B5063091D1
:10057000B6062817390769F48091630B2091620B46
:1005800090E0805C9F4F821B910960E470E00C94C6
:10059000DB3D80E090E008952091B5063091B606ED
:1005A00028173907B9F49091620B8091630B981763
:1005B00089F0E091620BF0E0ED58F94F80812091D5
:1005C000620B30E02F5F3F4F2F7333272093620B76
:1005D00090E008958FEF9FEF089580E090E00895F8
:1005E000FC01818D928D009709F0B0C60895CF93DC
:1005F000DF93EC01898D9A8D009739F481E090E0CA
:100600009B838A8380E090E00BC0FC0113821282FE
:100610000E94B40EE98DFA8D22813381232B71F76C
:10062000DF91CF9108958EBD00000DB407FEFDCF80
:100630008EB508958FEFF7CF8CBD9DBD0895FC0159
:10064000DB0112968D919C9113979383828384E4AE
:1006500092E09183808314968C91149784831596ED
:100660008C911597858316964D915D916D917C9136
:10067000199746835783608771871A964D915D91CC
:100680006D917C911D9742875387648775871E966D
:100690004D915D916D917C91519746875787608B05
:1006A000718B52968C915297828B53964D915D919E
:1006B0006D917C915697438B548B658B768B5796B7
:1006C0004D915D916D917C915A97478B508F618FC1
:1006D000728F5B968D919C915C97948F838F089518
:1006E0004F925F926F927F92AF92BF92CF92DF92C2
:1006F000EF92FF920F931F93CF93DF931F92CDB78B
:10070000DEB7FC012581222309F4C1C0848180FF6A
:10071000BEC083899489A589B68942845384648440
:10072000758484159505A605B70509F4B0C06F0159
:100730005201F1E0BF22D6015B968D919C915C97AE
:10074000B301A20139E076956795579547953A959B
:10075000D1F7223071F4FC01828D938DA48DB58D7B
:100760008A019B01080F191F2A1F3B1FC901B801ED
:100770004AC0DC0114961C9111501423A114B10439
:10078000F9F411111DC045284628472851F4F601F7
:100790008789908DA18DB28D86839783A087B1873D
:1007A0000FC0D60116964D915D916D917C91199770
:1007B00096012A5F3F4F0E941E1C882309F467C0E0
:1007C000F601238D348D86819781A085B1850297AE
:1007D000A109B109AC01BD01F901058404C0440FB0
:1007E000551F661F771F0A94D2F786859785A089C3
:1007F000B189840F951FA61FB71FBC01CD01610FE2
:10080000711D811D911DD60114962C9126FF0DC0DE
:10081000409000025090010260900202709003022A
:10082000461657066806790699F440E00E94361B82
:10083000882369F1F501E45AF64FDE0111969F0114
:100840002F5F3F4F2E173F0799F081918D93FACF7D
:10085000FE0131967F0101E010E09501AB01BC0182
:1008600080915C0B90915D0B0E94BE0D882379F006
:10087000F60182859385A485B5850196A11DB11DDC
:1008800082879387A487B587898190E002C08FEF24
:100890009FEF0F90DF91CF911F910F91FF90EF90FD
:1008A000DF90CF90BF90AF907F906F905F904F9010
:1008B0000895FC01818D928D009709F011CF8FEF83
:1008C0009FEF08950F931F93CF93DF93FC01818DCA
:1008D000928D0097A9F0EF0103DF8C010F3F8FEF9E
:1008E000180789F0898D9A8DFC01428553856485AE
:1008F0007585415051096109710961D5C80105C06B
:1009000080E090E002C08FEF9FEFDF91CF911F91C9
:100910000F9108951F920F920FB60F9211240BB6EC
:100920000F922F933F934F935F936F937F938F9388
:100930009F93AF93BF93EF93FF93E091B506F09130
:10094000B606309709F451C0968DA685B785858582
:1009500091FF04C09C91892329F447C09C9189236D
:1009600009F043C0A389B4899C9185898095892326
:100970008C93868997890197F1F7608D718DA68593
:10098000B785558538E020E0CB010197F1F7822F3C
:1009900090E095958795282F4C91452309F0206884
:1009A000315091F7868D81FD20958091630B90E009
:1009B00001968F7399273091620B381749F0A091F7
:1009C000630BB0E0AD58B94F2C938093630B03C019
:1009D000868D8160868F828D938D0197F1F7A38933
:1009E000B4899C918589892B8C93FF91EF91BF915C
:1009F000AF919F918F917F916F915F914F913F91B7
:100A00002F910F900BBE0F900FBE0F901F90189557
:100A10000F931F93CF93DF93CDB7DEB72C970FB60D
:100A2000F894DEBF0FBECDBF8C0161E478E0CE014B
:100A300007960E94DE186DE079E0CE0101960E94D3
:100A4000DE186CE2CE0101960E94BA146DE478E0E3
:100A50000E945018BE01695F7F4F0E945018BC0170
:100A6000C8010E94DE18CE0101960E94AA18CE018C
:100A700007960E94AA18C8012C960FB6F894DEBFFC
:100A80000FBECDBFDF91CF911F910F910895CF93EE
:100A9000DF93CDB7DEB72C970FB6F894DEBF0FBE4D
:100AA000CDBFBC01CE0101960E94DE18BE016F5F72
:100AB0007F4FCE0107960E94DE186CE2CE010796AA
:100AC0000E94BA14BC0181E498E00E94FE17CE0196
:100AD00007960E94AA18CE0101960E94AA182C9689
:100AE0000FB6F894DEBF0FBECDBFDF91CF91089552
:100AF000CF93DF93EC0166E973E00E94E61866E9A4
:100B000073E0CE0106960E94E61866E973E0CE0116
:100B10000C96DF91CF910C94E6180F931F93CF930F
:100B2000DF9300D000D0CDB7DEB78C0166E973E06B
:100B30000E94E61885E698E018DD892BA1F085E68D
:100B400098E02ADD89831A8241E050E0BE016F5FA0
:100B50007F4FC8010E94D11764E170E080E090E00F
:100B60000E944E21E7CF63E573E0CE0101960E941B
:100B7000E618B801CE0101960E945018BC01C801C8
:100B80000E949518CE0101960E94AA18C8012696C7
:100B90000FB6F894DEBF0FBECDBFDF91CF911F918E
:100BA0000F9108954F925F926F927F928F929F92D2
:100BB000AF92BF92CF92DF92EF92FF92CF93DF93EB
:100BC00000D000D0CDB7DEB70E94C32080E00E94E5
:100BD0005C1D853409F090C260E088E00E94491DE8
:100BE00060E089E00E94491D60E084E00E94491DA8
:100BF00060E085E00E94491D60E086E00E94491D9A
:100C000060E083E00E94491D6FEF81E20E94491D70
:100C100061E088E10E94491D6AE070E080E090E0B8
:100C20000E944E2167E187E00E94491D6AE070E062
:100C300080E090E00E944E2169E283E10E94491D1C
:100C400069E884E10E94491D62E085E10E94491D36
:100C500060E086E10E94491D61EB81E00E94721D07
:100C600063E087E00E94721D63E08FE00E94491DEF
:100C700061E082E00E94721D60E08BE00E94721DC4
:100C800067E08AE00E94721D64E28CE00E94721D9F
:100C900060E081E10E94721D67E080E10E94721DA8
:100CA00060E282E10E94721D60E08EE10E94721D8E
:100CB00067E08DE10E94721D60E28FE10E94721D6B
:100CC00061E083E00E94491D61E084E00E94491DCB
:100CD0006FEF88E00E94491D6FE088E10E94491D86
:100CE00081E090E09093C1078093C0071092E907DC
:100CF0000E94C32084E08093DC070E947D1D90E069
:100D00009093C1078093C0078130910561F4809171
:100D1000DC070E94E11061E28AEE97E00E9465170D
:100D20000E94DF100EC0029761F48BE08093C2072F
:100D300081E08093C30762EC77E08091DC070E943A
:100D4000EB100E947D1D0E94C32088E60E94E110E6
:100D50006BE68AEE97E00E94651760E08AEE97E006
:100D60000E94651781E00E9483100E94B1232B012D
:100D70003C0120E1420E27E2521E611C711C812CB5
:100D8000912C5401C12CD12C7601809184080E94B1
:100D90002F21092E000CAA0BBB0B880E991EAA1E30
:100DA000BB1E61E070E080E090E00E944E218FEF7A
:100DB000C81AD80AE80AF80A0E94B1236415750512
:100DC0008605970510F3C501B4010E94F9394B015E
:100DD0005C01C701B6010E94F9399B01AC01C50154
:100DE000B4010E948C3B20E030E040EA50E40E94D5
:100DF0005A3A20E030E04AE754E40E945A3A20E0B0
:100E000030E040E85AE30E945A3A2091A808309115
:100E1000A9084091AA085091AB080E94273B609313
:100E2000A4087093A5088093A6089093A7088AE069
:100E300090E00E94E922BC01990F880B990B0E9457
:100E4000FB396093B8087093B9088093BA089093FF
:100E5000BB0868E873E180E090E00E944E2185E6DF
:100E600098E00E949D1D68E573E085E698E00E9489
:100E70003D1968EE73E080E090E00E944E21CE01C3
:100E800001964BDEBE016F5F7F4F83E297E00E94C9
:100E90004F19CE0101960E94AA1867E673E083E21B
:100EA00097E00E943D1960ED77E080E090E00E94BD
:100EB0004E2167E773E085E698E00E943D1964ECF7
:100EC00079E080E090E00E944E21CE01019625DE7F
:100ED000BE016F5F7F4F83E297E00E944F19CE0102
:100EE00001960E94AA1864EC79E080E090E00E94EC
:100EF0004E2167E973E085E698E00E943D1964EFB2
:100F000071E080E090E00E944E21CE01019605DE66
:100F1000BE016F5F7F4F83E297E00E944F19CE01C1
:100F200001960E94AA1868EE73E080E090E00E94AB
:100F30004E216DEB73E085E698E00E943D196CED63
:100F400075E080E090E00E944E21CE010196E5DD43
:100F5000BE016F5F7F4F83E297E00E944F19CE0181
:100F600001960E94AA186CEC73E085E698E00E9456
:100F70003D1964EF71E080E090E00E944E21CE01C7
:100F80000196CBDDBE016F5F7F4F83E297E00E9449
:100F90004F19CE0101960E94AA1864EC79E080E016
:100FA00090E00E944E216BED73E083E297E00E9497
:100FB0003D1966E973E083E297E00E943D196EEE09
:100FC00073E083E297E00E943D1960ED77E080E0F6
:100FD00090E00E944E2163E074E083E297E00E947B
:100FE0003D196EE074E085E698E00E943D1960EDE1
:100FF00077E080E090E00E944E21CE0101968DDDE9
:10100000BE016F5F7F4F83E297E00E944F19CE01D0
:1010100001960E94AA186CE174E085E698E00E94AF
:101020003D1968EE73E080E090E00E944E21CE0111
:10103000019673DDBE016F5F7F4F83E297E00E94F0
:101040004F19CE0101960E94AA1862E374E083E270
:1010500097E00E943D196CE374E085E698E00E94F9
:101060003D1968E873E180E090E00E944E21CE01D6
:10107000019653DDBE016F5F7F4F83E297E00E94D0
:101080004F19CE0101960E94AA1864EC79E080E025
:1010900090E00E944E2168E974E083E297E00E94AC
:1010A0003D1966E973E083E297E00E943D1983ED04
:1010B00098E00E949D1D8CED95E0A0E0B0E080934B
:1010C000D7089093D808A093D908B093DA08269649
:1010D0000FB6F894DEBF0FBECDBFDF91CF91FF906A
:1010E000EF90DF90CF90BF90AF909F908F907F90C8
:1010F0006F905F904F90089560EB74E083E297E00B
:101100000E943D1968EE73E080E090E00E944E215D
:101110005BCD3F924F925F926F927F928F929F92A0
:10112000AF92BF92CF92DF92EF92FF920F931F93F5
:10113000CF93DF93CDB7DEB72C970FB6F894DEBF11
:101140000FBECDBF5C01DC015B968D909C905C97DF
:101150001696CD90DD90ED90FC901997C114D104B6
:10116000E104F10439F0BFEFCB1ADB0AEB0AFB0A0A
:10117000312C07C0F401C080D180E280F380332499
:101180003394F40181859285A385B4859C01AD01DA
:101190002F5F3F4F4F4F5F4F29873A874B875C87C1
:1011A000260137011D821E821F821886F401818567
:1011B0009285A385B4852D813E814F81588528175E
:1011C00039074A075B0708F063C089859A85AB85B4
:1011D000BC858C159D05AE05BF0550F482E0C82E78
:1011E000D12CE12CF12C92E0492E512C612C712C48
:1011F0009E012F5F3F4FB701A601C4010E941E1C34
:10120000882309F445C089819A81AB81BC81892BEF
:101210008A2B8B2B41F0260137019FEF491A590A7F
:10122000690A790A05C0C414D504E604F70491F0EC
:101230002D813E814F8158852F5F3F4F4F4F5F4F2C
:101240002D833E834F8358873FEFC31AD30AE30AA7
:10125000F30AACCF0FEF1FEF2FEF3FE0B301A20176
:10126000C4010E947E1B882399F0D50116964D91EA
:101270005D916D917C91199741155105610571053D
:1012800049F093018201C4010E947E1B811102C0BA
:1012900080E02AC0D50116964D925D926D927C92A7
:1012A0001997332051F0D301C2010196A11DB11D40
:1012B000F40180839183A283B383F5018789908DA4
:1012C000A18DB28D892B8A2B8B2B69F4D501579672
:1012D0004D925D926D927C925A9714968C911497D0
:1012E000806814968C9381E02C960FB6F894DEBF3C
:1012F0000FBECDBFDF91CF911F910F91FF90EF9067
:10130000DF90CF90BF90AF909F908F907F906F9025
:101310005F904F903F9008950F931F93CF93DF936B
:10132000EB010E94B1238B0185D98F3F49F00E94C8
:10133000B123601B710B6C177D07B0F380E001C017
:1013400081E0DF91CF911F910F910895CF93DF93AB
:10135000EC018D81882379F18C8187FF28C06E850F
:101360007F858889998941E00E94361B882319F17D
:10137000EA8980E2E89FF0011124E45AF64F3097A1
:10138000D1F08D81823040F48B899C89AD89BE89F2
:10139000848F958FA68FB78F8F89988DA98DBA8DE1
:1013A000938F828FB58BA48B8C818F778C83DF9109
:1013B000CF910C94FB1A80E0DF91CF9108958F922A
:1013C0009F92AF92BF92CF92DF92EF92FF920F93D4
:1013D0001F93CF93DF93EC018D81811102C080E0D8
:1013E00078C00B891C892D893E89041715072607AB
:1013F0003707A8F36A017B01823029F4CA86DB86AD
:10140000EC86FD860DC0C114D104E104F10451F451
:101410001E821F82188619861A861B861C861D86C8
:1014200081E057C08A849B84AC84BD84EB8DFC8DA5
:10143000258530E0275F3F4FB501A4014150510998
:1014400061097109022E04C07695679557954795F5
:101450000A94D2F7D701C6010197A109B10904C0C6
:10146000B695A795979587952A95D2F784179507EE
:10147000A607B70720F089288A288B2871F44F899E
:10148000588D698D7A8D4E835F83688779874C018B
:101490005D018E010A5F1F4F16C0841B950BA60BC2
:1014A000B70BF5CF4E815F816885798598018B8D6B
:1014B0009C8D0E941E1C91E0891A9108A108B10818
:1014C000882309F48CCF81149104A104B10451F74D
:1014D00095CFDF91CF911F910F91FF90EF90DF900B
:1014E000CF90BF90AF909F908F9008958F929F92D2
:1014F000AF92BF92CF92DF92EF92FF920F931F9322
:10150000CF93DF9300D01F92CDB7DEB77C0180E28E
:10151000689FF0011124E45AF64F9385917121F0F0
:10152000842F827409F08EC0142FD70152966C93C9
:101530005297409100025091010260910202709115
:1015400003021E964D935D936D937C93519744894E
:10155000558960E070E0BA0155274427828D938D4C
:10156000A0E0B0E0482B592B6A2B7B2BD701579674
:101570004D935D936D937C935A978385887159F44D
:10158000848D958DA68DB78DF701838B948BA58B5C
:10159000B68B81E012C0803109F054C097012D5EF6
:1015A0003F4FD7015B968D919C915C970E94291EBD
:1015B000882309F447C084E0F7018583812F8F7069
:1015C000D70114968C931497F70116821782108610
:1015D00011861A961D921D921D921C921D9716FF40
:1015E00033C015968C91813069F511FF2BC0F7013E
:1015F0004389548965897689452B462B472B09F405
:101600005EC040E050E0BA01C701D9DE8823D1F0C6
:10161000F7018788908CA18CB28CC38CD48C82E02B
:1016200090E0A0E0B0E0F60180839183A283B383D1
:101630009E012F5F3F4FB501A401C6010E941E1CF1
:10164000811104C080E03BC081E039C000E010E0BF
:101650009801B501A401C6010E947E1B882391F365
:1016600089809A80AB80BC80D60157968C9180315E
:1016700029F088EF9FEFAFEFBFE004C088EF9FEF46
:10168000A0E0B0E088169906AA06BB0688F2D7014A
:1016900057961D921D921D921C925A97F701138A1C
:1016A000148A158A168A848180688483C7014EDE75
:1016B000882341F240E050E0BA01C70180DE0F907C
:1016C0000F900F900F90DF91CF911F910F91FF908E
:1016D000EF90DF90CF90BF90AF909F908F90089544
:1016E0002F923F924F925F926F927F928F929F9232
:1016F000AF92BF92CF92DF92EF92FF920F931F9320
:10170000CF93DF93CDB7DEB72B970FB6F894DEBF3C
:101710000FBECDBF7C01FE013196CE010C966F014C
:1017200030E23193E817F907E1F7DA0130E087E0BA
:101730009D91992331F19E3231F48A3009F469C1C7
:1017400038E08AE0F5CFE4E9F2E04491442321F067
:1017500031969413FACF5DC1831708F45AC14FED47
:10176000490F4E3508F055C141E0430FF601E30F34
:10177000F11D3FE9390F3A3108F490529083342F2C
:10178000D7CF8981803209F444C1322E8B01DB012D
:101790005B968D919C915C97F701948F838F169641
:1017A0001D921D921D921C921997FB0112861386A1
:1017B00014861586B12CF80182859385A485B5859C
:1017C000438954896589768984179507A607B707E1
:1017D00008F05BC025E0B695A795979587952A9563
:1017E000D1F7F82FFF70AF2ED80115968C9182306B
:1017F00008F40FC1C8010E94700397FD0AC1F801E7
:1018000082859385A485B5854F96A11DB11D8287DC
:101810009387A487B587F0E2AF9EB0011124645A84
:10182000764F6115710509F4F4C0DB018C918823B2
:1018300019F0853EC1F4EFC0B1100EC0F701A28AC5
:101840008091000290910102A0910202B0910302E6
:1018500086879787A08BB18BDB018C91882399F0C9
:10186000BB24B394A8CF4BE050E0C6010E940F40C8
:10187000892B09F0A0CF832D8073803309F4C9C070
:10188000432D6A2DC3C0BB24B394832D8271823152
:1018900009F0BFC0BB20C1F0F7016685778580895C
:1018A000918941E00E94361B882309F4B2C0D70118
:1018B00052968C91B0E28B9FC0011124845A964FAE
:1018C000009709F077C0A5C0F8018581823009F43E
:1018D000A0C0C8011EDC882309F49BC0D8015B9618
:1018E000ED91FC915C9716968D909D90AD90BC907B
:1018F0001997B2E08B1A9108A108B108058404C0B9
:10190000880C991CAA1CBB1C0A94D2F78685978563
:10191000A089B189880E991EAA1EBB1E2480E1E011
:101920008E1A9108A108B108222009F1240135017D
:10193000420C511C611C711C0E94FB1A882309F483
:1019400068C0ECE5F9E011922BE0EC35F207D9F72D
:1019500040920002509201026092020270920302D1
:10196000809114098160809314092A94DDCFD801F5
:101970005B96ED91FC915C9780E092E0A0E0B0E096
:10198000058404C0880F991FAA1FBB1F0A94D2F7B1
:10199000F8014389548965897689840F951FA61FAC
:1019A000B71F838B948BA58BB68BD70152961C9255
:1019B0008CE599E020E2FC0111922A95E9F72BE0F1
:1019C000F601DC0101900D922A95E1F721E238E25F
:1019D000DC0151963C932E93509740E058E01F96BF
:1019E0005C934E931E9753963C932E935297599621
:1019F0003C932E93589757965C934E9356970E941C
:101A0000FB1A882331F0432DF7016289C7016EDD8F
:101A100005C080E003C0B11023CF10CF2B960FB6C6
:101A2000F894DEBF0FBECDBFDF91CF911F910F9114
:101A3000FF90EF90DF90CF90BF90AF909F908F90EE
:101A40007F906F905F904F903F902F900895CF932D
:101A5000DF93EC017BDC882311F01D8281E0DF91B4
:101A6000CF9108958FB7F8948091B3068FBF0895F2
:101A7000CF93DF93EC018091B406811109C081E01E
:101A80008093B4068091F6079091F7070E941C039B
:101A900060E08C81DF91CF910C94452061E0FC01E6
:101AA00084810E9445208091B40681111092B40671
:101AB0000895CF93DF93EC018E81882381F08F818D
:101AC00098859C012F5F3F4F38872F83823092404B
:101AD00018F40E941A03F3CFCE01E0DF1E82DF91DB
:101AE000CF9108958F929F92AF92BF92FF920F93E2
:101AF0001F93CF93DF93EC01F62E49015A01D9DFF2
:101B0000CE01B6DF6CE271E0CE0106DC8F2D806481
:101B10000E94130308E110E0D501C401002E04C0A7
:101B2000B695A795979587950A94D2F70E941303C7
:101B300008501109083F8FEF180771F7FF2029F0AF
:101B400088E0F81204C087E803C085E901C08FEF80
:101B50000E94130310E00E941A038A8787FF04C0C3
:101B60001F3F11F01F5FF7CFDF91CF911F910F91B2
:101B7000FF90BF90AF909F908F900895AF92BF92CB
:101B8000CF92DF92EF92FF920F931F93CF93DF9349
:101B9000EC016901C801820F931F8130924008F067
:101BA0006DC08E81882371F088819981AA81BB8163
:101BB00084179507A607B70729F48F819885C8165B
:101BC000D906A0F5488359836A837B838B8583304C
:101BD00039F089E0440F551F661F771F8A95D1F7AA
:101BE0009A01AB0161E1CE017DDF882319F083E02A
:101BF0008D8344C00E94B1235B010E941A038A872F
:101C00008F3F49F40E94B1236A197B096D327140FC
:101C1000A0F38FE003C08E3F29F08DE08D83CE01CD
:101C20003DDF2CC018861F8281E08E838F819885CE
:101C30008C159D0540F40E941A038F8198850196AA
:101C400098878F83F3CF6701E00EF11EEC14FD043B
:101C500031F00E941A03F60181936F01F7CF8F8153
:101C60009885080F191F18870F838985882319F015
:101C70000115124038F0CE011CDF04C0CE010EDF8A
:101C800080E001C081E0DF91CF911F910F91FF9023
:101C9000EF90DF90CF90BF90AF900895EF92FF92BA
:101CA0000F931F93CF93DF93EC01790141155105F9
:101CB0006105710511F482E139C08B85833039F0FB
:101CC00089E0440F551F661F771F8A95D1F79A0147
:101CD000AB0168E1CE0106DF882311F084E026C065
:101CE0008EEF0E94130387018EEFF81AF80181919D
:101CF0008F010E941303E016F106C1F78FEF0E94D7
:101D000013038FEF0E9413030E941A038A878F71B7
:101D1000853029F081E18D83CE01C0DE08C068E501
:101D200072E0CE01F9DA811106C085E18D83CE0122
:101D3000B5DE80E012C020E030E0A9016DE0CE0108
:101D4000D1DE811108C00E941A03811104C0CE01A6
:101D5000A5DE81E002C084E1E9CFDF91CF911F9140
:101D60000F91FF90EF9008952F923F924F925F92C4
:101D70006F927F928F929F92AF92BF92CF92DF929B
:101D8000EF92FF920F931F93CF93DF9300D01F9298
:101D9000CDB7DEB78C015B011A01DC0115968C9181
:101DA00015978130C1F414968C9181FF14C082FF85
:101DB0001CC0F80143895489658976898285938599
:101DC000A485B58584179507A607B70771F0C801E4
:101DD000F6DA81110AC081E090E0D80113969C9355
:101DE0008E93129780E090E033C1610182C05B96D0
:101DF0008D919C915C97FC0174802FEF270D2A0137
:101E00003B0139E076946794579447943A95D1F71B
:101E1000722E74207A01F1E0FF22772009F475C058
:101E200080E092E08E199F0946018C159D0508F40B
:101E30004C01D8015B962D913C915C9716968D9143
:101E40009D910D90BC91A02D0297A109B109F901B6
:101E5000058404C0880F991FAA1FBB1F0A94D2F7DC
:101E60004685578560897189840F951FA61FB71F06
:101E70009C01AD01270D311D411D511D29013A0164
:101E8000811432E0930609F086C08091000290919F
:101E90000102A0910202B0910302481659066A0697
:101EA0007B0659F48FEF9FEFDC0180930002909343
:101EB0000102A0930202B09303029501B301A201B3
:101EC00080915C0B90915D0BE9DE882309F483CF50
:101ED0009EEFB91AC818D908F80182859385A485A0
:101EE000B585880D991DA11DB11D82879387A48793
:101EF000B587D8011A964D915D916D917C911D9792
:101F0000C114D10409F073CF86C0E114F10409F0C3
:101F100087CF16964D915D916D917C9119974115E2
:101F200051056105710559F457968D919D910D905C
:101F3000BC91A02D0097A105B10539F521C09E01E6
:101F40002F5F3F4F0E941E1C882309F44CCF8981CC
:101F50009A81AB81BC81F801238D348DF9012789E9
:101F6000203129F048EF5FEF6FEF7FE004C048EFCA
:101F70005FEF60E070E084179507A607B70728F0C9
:101F8000C801C7D881114CCF26CFF801868397832B
:101F9000A087B18745CFE114F10429F5D8011A963D
:101FA0004D915D916D917C911D9753968D919D9171
:101FB0000D90BC91A02D481759076A077B0798F030
:101FC0000E94FB1A882309F406CF40920002509227
:101FD00001026092020270920302809114098160F2
:101FE0008093140908C041E0C301B2010E94361B6E
:101FF000882309F4F0CED501F701E45AF64F9F018A
:10200000280D391D2E173F0719F08D918193FACFB6
:10201000A80CB91C5FCFF80183899489A589B6897A
:1020200084179507A607B70738F4438B548B658B45
:10203000768B848180688483F801848183FD02C06B
:10204000C10106C0C80182D9882309F4C4CEF8CFE3
:102050000F900F900F900F90DF91CF911F910F91E4
:10206000FF90EF90DF90CF90BF90AF909F908F90B8
:102070007F906F905F904F903F902F900895CF93F7
:10208000DF931F92CDB7DEB7698341E050E0BE0118
:102090006F5F7F4F69DE0F90DF91CF9108950F93AF
:1020A0001F930E94B1236093DB087093DC08809338
:1020B000DD089093DE0883ED98E00E94CC0297FF44
:1020C0001FC00E94B1230091DB081091DC08209111
:1020D000DD083091DE08DC01CB01801B910BA20BE7
:1020E000B30B0091D7081091D8082091D9083091EE
:1020F000DA0880179107A207B307E8F28FEF9FEF86
:102100001F910F910895282F30912207313208F046
:102110004AC08091FF068111FCCF9091130942E0E3
:102120004093FF062093FE062FEF2093FD061092AA
:10213000FC063093FB06E2E0F7E0ABEDB6E020E012
:10214000321721F041914D932F5FFACF1092DA06AA
:102150002091DA06990F922B9093DA069091D90686
:10216000913061F41092D9069091DA069093BB00F9
:102170009091BC0093FDF8CF95EC01C095EE909343
:10218000BC009091FF069230E1F39091FD069F3FD5
:1021900079F08091FD06803241F08091FD06803318
:1021A00031F084E005C081E003C082E001C083E03B
:1021B000109201071092220710920007089581E003
:1021C000A2CF91E09093000780931309109201072A
:1021D000109222070895CF93DF93EB01F2DF68811D
:1021E0008AEE97E072D669818AEE97E06ED6DF912B
:1021F000CF91E5CF9091FF069111FCCF91E09093A4
:10220000FF064093FE062FEF2093FD061092FC067A
:10221000260F2093FB069093DA069091DA06880F3A
:10222000892B8093DA068091D906813061F410926F
:10223000D9068091DA068093BB008091BC0083FDB3
:10224000F8CF85EC01C085EE8093BC008091FF063D
:102250008130E1F38091FC06861710F46091FC0652
:10226000ABEDB6E0E9EBF6E080E0861721F09D915A
:1022700091938F5FFACF0895FF920F931F93CF939F
:10228000DF93182F8091DC079CDF612F8AEE97E0A7
:102290001CD695DF62E070E080E090E00E944E2165
:1022A00041E064E08091DC07A5DF1092B8068093DE
:1022B000B70681110BC0C6E6D0E0219719F162E0A4
:1022C00070E080E090E00E944E21F7CF8430E9F486
:1022D0008AEE97E0B2D5182F8AEE97E0AED5F82EA9
:1022E0008AEE97E0AAD5082F8AEE97E0A6D51F0DB3
:1022F000100F18130DC0DF2D80E0C82FCE01800F06
:10230000911D08C08EEF9FEF05C08DEF9FEF02C0BB
:102310008CEF9FEFDF91CF911F910F91FF90089568
:10232000613208F060E241E065DF1092B806809308
:10233000B7060895CF92DF92EF92FF921F93CF934B
:10234000DF93CDB7DEB72A970FB6F894DEBF0FBE86
:10235000CDBF182FCE0101966C018091DC0731DFD3
:10236000612F8AEE97E0B1D52ADF62E070E080E06D
:1023700090E00E944E218091DC0762E070E090E0E6
:10238000CFDF76019091B7068091B806981739F0A3
:102390008AEE97E052D5F70181937F01F3CFCE14F7
:1023A000DF04D9F2898190E0982F88272A81820F53
:1023B000911D123081F01330D1F0113019F50097D2
:1023C00029F09093D7078093D6071CC08091D60739
:1023D0009091D70717C0009729F09093D907809361
:1023E000D80710C08091D8079091D9070BC00097EB
:1023F00029F09093DB078093DA0704C08091DA0715
:102400009091DB072A960FB6F894DEBF0FBECDBFC2
:10241000DF91CF911F91FF90EF90DF90CF900895C3
:10242000DF92EF92FF920F931F93CF93DF93CDB77D
:10243000DEB72A970FB6F894DEBF0FBECDBFD82EF9
:10244000CE0101967C018091DC07BBDE66E08AEE5E
:1024500097E03BD56D2D8AEE97E037D5B0DE62E090
:1024600070E080E090E00E944E218091DC0762E005
:1024700070E090E055DF87019091B7068091B80633
:10248000981739F08AEE97E0D8D4F80181938F013C
:10249000F3CFE016F106B9F2898190E0982F8827F2
:1024A0002A81820F911D2A960FB6F894DEBF0FBEC7
:1024B000CDBFDF91CF911F910F91FF90EF90DF90F3
:1024C00008952F923F924F925F926F927F928F92D8
:1024D0009F92AF92BF92CF92DF92EF92FF920F93B3
:1024E0001F93CF93DF93CDB7DEB72E970FB6F89437
:1024F000DEBF0FBECDBF9E878D878091C0079091B4
:10250000C1078130910509F083C08091E9078111ED
:1025100022C081E1B1DE18161906BCF49093DE07E3
:102520008093DD0782E1A8DE1816190674F49093F3
:10253000E0078093DF0783E19FDE181619062CF46D
:102540009093E2078093E10703C0892B09F073C1E0
:1025500081E08093E90781E08FDE97FD73C190935E
:10256000E4078093E30782E087DE97FD6BC19093D9
:10257000E6078093E50783E07FDE3C0197FD62C1BB
:102580009093E8078093E7076091E3077091E40771
:1025900080E090E00E94F9396B017C016091DD07D9
:1025A0007091DE0780E090E00E94F9399B01AC0158
:1025B000C701B6010E948C3B6B017C016091E5076D
:1025C0007091E60780E090E00E94F9394B015C01D0
:1025D0006091DF077091E00780E090E00E94F93998
:1025E0009B01AC01C501B4010E948C3B4B015C0115
:1025F000B30180E090E00E94F9392B013C01609129
:10260000E1077091E20780E090E00E94F939D4C0C0
:10261000029709F0F5C08AE08093C20781E08093B9
:10262000C30762EC77E08091DC07D5DD88E0F8DE57
:102630005C018AE0F5DE1C018CE0F2DE9E838D8376
:1026400081E078DE7C0182E075DE8C0183E072DE61
:102650009A838983B701FF0C880B990B0E94FB3981
:102660006B017C01B501BB0C880B990B0E94FB39F7
:102670004B015C019B01AC01C701B6010E948C3B80
:102680002B013C01A501940160E070EC8FE794E41C
:102690000E94273B9B01AC01C301B2010E945A3A40
:1026A0004B015C01A701960160E070EC8FE794E4B8
:1026B0000E94273B9B01AC01C501B4010E948C3BE9
:1026C0006B017C01B801110F880B990B0E94FB393B
:1026D0002B013C01B101330C880B990B0E94FB3993
:1026E0004B015C019B01AC01C301B2010E948C3B18
:1026F00069877A878B879C87A501940160E070ECDD
:102700008FE794E40E94273B9B01AC0169857A85A1
:102710008B859C850E945A3A4B015C01A301920172
:1027200060E070EC8FE794E40E94273B9B01AC01D2
:10273000C501B4010E948C3B4B015C0129813A81A7
:10274000B901330F880B990B0E94FB3969837A8397
:102750008B839C832D813E81B901330F880B990BAC
:102760000E94FB392B013C019B01AC0169817A81FC
:102770008B819C810E948C3B6D837E838F839887A5
:10278000A301920160E070EC8FE794E40E94273B84
:102790009B01AC016D817E818F8198850E945A3AA0
:1027A0002B013C0129813A814B815C8160E070EC16
:1027B0008FE794E40E94273B9B01AC01C301B20167
:1027C0000E948C3B2B013C018D859E8588309105B4
:1027D00010F4FC013EC000E010E01D8219828091DF
:1027E000C0079091C1070297A1F48AE08093C207C5
:1027F0001092C30762EC77E08091DC07ECDC09C043
:102800002D853E852830310518F100E010E01D824D
:10281000198298014D815981B8018D8199810E9459
:10282000B73C882309F48AC000E010E030E43D831F
:1028300080EC898383C000E010E090E89D832FEB5B
:1028400029837CC000E010E01D8290EC998376C063
:10285000F9018827EE58FF4F8F4F0C94EE3D29E782
:1028600039EE46E95FEBC501B4010E94293C2CEE2C
:1028700031E54CE850E45CC020E635EE40E85FE32B
:10288000C301B2010E94293C29E23CE54BED50E432
:102890000CC02FE832EC45ED5FEBC701B6010E949A
:1028A000293C26EF38E24CEB5FE30E948C3B42C0B0
:1028B00029EE36E241E250ECC701B6010E94293C04
:1028C0002FE73AE84EE054E433C02EEF34ED48E011
:1028D00050ECC701B6010E94293C22EB3DE047ECD9
:1028E00053E426C022EB3DE94BE850ECC501B401AE
:1028F0000E94293C2FE33DEB4DE154E419C026E64C
:1029000036E646EE5FEBC501B4010E94293C28E49F
:1029100031EE4AE35FE30CC020EF37EA46EC5FEBB1
:10292000C501B4010E94293C22EB3DE94FEC5FE375
:102930000E945A3A8B018D83998351CFB8018D81C2
:1029400099812E960FB6F894DEBF0FBECDBFDF91F2
:10295000CF911F910F91FF90EF90DF90CF90BF909C
:10296000AF909F908F907F906F905F904F903F902F
:102970002F9008950F931F93CF93DF931F921F9271
:10298000CDB7DEB78C0169831A8241E050E0BE0109
:102990006F5F7F4F06D3811102C0C8016FD3C8019A
:1029A0000F900F90DF91CF911F910F910895CF92CB
:1029B000DF92EF92FF92CF93DF93C82F8091C608EA
:1029C0008C3009F446C018F48B30D1F06FC08551BB
:1029D000823008F06BC0D091C2086D2F6F7770E025
:1029E000762F66278091C308682B80E090E00E94D4
:1029F000F9392DEC3CEC4CEC5DE30E945A3A45C0B1
:102A00006091C20870E080E090E00E94F9396B01AB
:102A10007C01D091C308D7FF0AC09B01AC0160E0E4
:102A200070E080E89FEB0E94273B6B017C016D2FDB
:102A30006F7070E080E090E00E94FB392DEC3CEC80
:102A40004CEC5DE30E945A3AA70196010E94283B94
:102A50001EC0D091C2086D2F70E080E090E00E940F
:102A6000F9396B017C016091C3086F7070E080E000
:102A700090E00E94FB392DEC3CEC4CEC5DE30E94B5
:102A80005A3AA70196010E94283BD7FD9058CC23C3
:102A900089F026E636E646EE5FE30E945A3A20E0E9
:102AA00030E040E052E40E94283B04C060E070E067
:102AB00080EC9FE7DF91CF91FF90EF90DF90CF9078
:102AC0000895CF92DF92EF92FF92CF93DF93B09170
:102AD000C708882311F0AB2F01C0A0E08091C8087F
:102AE00090E0880F991F8C559D4FC090CD08D090D5
:102AF000CE08E090CF08F090D00820E030E0FC0154
:102B0000C591D491E881EB23A90160E070E0EA135C
:102B10000CC02F5F3F4F4C155D056E057F0578F3A8
:102B20003FEF2FEF8FEF9FEF03C0322F252FCB0109
:102B3000632F722FDF91CF91FF90EF90DF90CF90B6
:102B400008950895CF92DF92EF92FF920F931F9313
:102B5000CF93DF936C017A018B01C0E0D0E0CE15FA
:102B6000DF0581F0D8016D918D01D601ED91FC91C9
:102B70000190F081E02DC6011995892B11F0219665
:102B8000EECF7E01C701DF91CF911F910F91FF9092
:102B9000EF90DF90CF900895FC01538D448D252F49
:102BA00030E0842F90E0821B930B541710F0CF96E7
:102BB000089501970895FC01918D828D981761F019
:102BC000828DDF01A80FB11D5D968C91928D9F5F64
:102BD0009F73928F90E008958FEF9FEF0895FC010F
:102BE000918D828D981731F0828DE80FF11D858DC2
:102BF00090E008958FEF9FEF0895FC01918D228D55
:102C0000892F90E0805C9F4F821B91098F739927D9
:102C1000089583E297E0F1DF21E0892B09F420E0B9
:102C2000822F0895FC01848DDF01A80FB11DA35AE6
:102C3000BF4F2C91848D90E001968F739927848FDC
:102C4000A689B7892C93A089B1898C9183708064FF
:102C50008C93938D848D981306C00288F389E02DA0
:102C600080818F7D80830895EF92FF920F931F9351
:102C7000CF93DF93EC0181E0888F9B8D8C8D98132F
:102C800005C0E889F989808185FD25C0F62E0B8D68
:102C900010E00F5F1F4F0F731127E02E8C8DE8128D
:102CA0000BC00FB607FCFACFE889F989808185FF50
:102CB000F5CFCE01B7DFF2CF8B8DFE01E80FF11D0E
:102CC000E35AFF4FF0829FB7F8940B8FEA89FB8994
:102CD000808180620AC09FB7F894EE89FF89608383
:102CE000E889F98980818370806480839FBF81E057
:102CF00090E0DF91CF911F910F91FF90EF90089599
:102D0000CF93DF93EC01888D8823C1F0EA89FB899A
:102D1000808185FD05C0A889B9898C9186FD0EC08A
:102D20000FB607FCF5CF808185FFF2CFA889B9895E
:102D30008C9185FFEDCFCE0175DFE8CFDF91CF918C
:102D4000089580E090E0892B19F063DF811125C0A0
:102D500080E090E0892B41F080E090E0892B21F029
:102D60000E94000081111CC080E090E0892B41F09E
:102D700080E090E0892B21F00E940000811113C0B7
:102D800080E090E0892BA1F080E090E0892B81F039
:102D90000E94000081110AC008950E940000D8CF4F
:102DA0000E940000E1CF0E940000EACF0C940000D6
:102DB000089585ED8093BC008091BC0084FDFCCF1C
:102DC0001092FF06089540913909262F30E0240F14
:102DD000311D21323105DCF42091FF062430C9F485
:102DE000FC0180E090E0861758F430913909219178
:102DF000DC01A75EB64FA30FB11D2C930196F3CF54
:102E000080913909680F6093390980E0089581E065
:102E1000089582E00895089508950895E091B80610
:102E20008091B706E81730F4F0E0E754F94F80815D
:102E300090E008958FEF9FEF08959091B8068091EC
:102E4000B706981750F4E92FF0E0E754F94F2081C6
:102E500030E09F5F9093B80602C02FEF3FEFC901AB
:102E600008958091B70690E02091B806821B9109E1
:102E70000895CF92DF92EF92FF920F931F93CF931B
:102E8000DF937C01CB018A0120910007222389F086
:102E9000EB016B01C40ED51ECC15DD0561F0699107
:102EA000D701ED91FC910190F081E02DC7011995BA
:102EB000F3CF642F88DFC801DF91CF911F910F916D
:102EC000FF90EF90DF90CF900895CF93DF931F9204
:102ED000CDB7DEB76983209100072223D1F020917E
:102EE0002207203240F021E030E0FC0133832283CE
:102EF00080E090E014C080910107E82FF0E0EE5FE1
:102F0000F84F998190838F5F809301078093220708
:102F100004C061E0CE01019656DF81E090E00F90A1
:102F2000DF91CF9108950E940B406115710579F0F2
:102F3000FB0101900020E9F73197AF01461B570BC9
:102F4000DC01ED91FC910280F381E02D199480E089
:102F500090E008950F931F93CF93DF93EC01888146
:102F60009981009729F02A813B812617370788F439
:102F70008B016F5F7F4F0E942B3F009761F0998319
:102F800088831B830A832C813D81232B11F4FC0150
:102F9000108281E001C080E0DF91CF911F910F91FD
:102FA0000895EF92FF920F931F93CF93DF936115D4
:102FB000710511F480E01BC041155105B9F07B018A
:102FC000EC018C819D818A01080F191FB801CE0187
:102FD000C1DF882379F3288139818C819D81B701F4
:102FE000820F931F0E9430401D830C8381E0DF918C
:102FF000CF911F910F91FF90EF900895FB014481B5
:10300000558160817181CDCF0F931F93CF93DF9353
:103010008C01EB01FC0180819181009739F068817E
:10302000798161157105A1F40E94A23E8881998180
:10303000F801918380838A819B81938382838C8131
:103040009D8195838483198218821B821A820FC006
:10305000F801428153812C813D814217530720F3AF
:103060000E9430408C819D81F801958384831D826C
:103070001C82DF91CF911F910F910895CF93DF9321
:10308000EC0188819981009711F00E94A23E19827B
:1030900018821D821C821B821A82DF91CF910895B3
:1030A000CF93DF93EC01FB014481558160817181F5
:1030B00078DF811102C0CE01E1DFCE01DF91CF9137
:1030C0000895EF92FF920F931F93CF93DF93EC013C
:1030D0007B018A01BA013EDF811103C0CE01CEDF40
:1030E00007C01D830C83B701888199810E943040FD
:1030F000CE01DF91CF911F910F91FF90EF90089536
:10310000CF93DF93EC016115710551F0FB01019044
:103110000020E9F73197AF01461B570BD2DF01C002
:10312000ADDFCE01DF91CF910895CF93DF93EC0116
:10313000FB018617970751F0608171816115710558
:1031400021F044815581BDDF01C098DFCE01DF91C0
:10315000CF910895FC01808191810C94A23EEF9261
:10316000FF920F931F93CF93DF93CDB7DEB7A19755
:103170000FB6F894DEBF0FBECDBF7C01CB01BA0104
:10318000F70111821082138212821582148242E0AA
:10319000420F8E010F5F1F4F0E941A37BC01C701FB
:1031A000AFDFA1960FB6F894DEBF0FBECDBFDF91A3
:1031B000CF911F910F91FF90EF900895FC01118224
:1031C00010821382128215821482AFCFFC01118209
:1031D000108213821282158214826115710549F0E2
:1031E000FB0101900020E9F73197AF01461B570B17
:1031F00068CF0895BF92CF92DF92EF92FF920F9324
:103200001F93CF93DF937C016B018A01E90124179F
:10321000350720F4812F8901C42FD82F66E973E088
:10322000C701D4DFD60114968D919C91159708178C
:103230001907C0F48C179D0708F4EC01D601ED9135
:10324000FC911197EC0FFD1FB08010826D917C9165
:10325000600F711FC70154DFD601ED91FC91EC0F97
:10326000FD1FB082C701DF91CF911F910F91FF9099
:10327000EF90DF90CF90BF9008950F931F93CF935F
:10328000DF93EC0152DE8C0164E973E0CE014DDE88
:10329000800F911FDF91CF911F910F9108950F9390
:1032A0001F93CF93DF93EC01FB0144815581608133
:1032B0007181E881F9810280F381E02D19958C01FB
:1032C00064E973E0CE0131DE800F911FDF91CF9171
:1032D0001F910F9108951F920F920FB60F92112414
:1032E0000BB60F922F933F934F935F936F937F9300
:1032F0008F939F93AF93BF93EF93FF9383E297E0F6
:1033000091DCFF91EF91BF91AF919F918F917F9150
:103310006F915F914F913F912F910F900BBE0F9046
:103320000FBE0F901F9018951F920F920FB60F921D
:1033300011240BB60F922F938F939F93EF93FF93CC
:10334000E0913307F09134078081E0913907F091E3
:103350003A0782FD12C0908180913C078F5F8F7386
:1033600020913D07821751F0E0913C07F0E0ED5DC0
:10337000F84F958F80933C0701C08081FF91EF91BA
:103380009F918F912F910F900BBE0F900FBE0F90BA
:103390001F9018951F920F920FB60F9211240BB623
:1033A0000F922F933F934F935F936F937F938F93DE
:1033B0009F93AF93BF93EF93FF938091B900887F62
:1033C000803609F49CC068F5883209F45BC090F43B
:1033D000803109F454C038F4882309F4F6C08830E9
:1033E00009F44DC0F5C0883109F44CC0803209F4AD
:1033F0005DC0EEC0803409F468C048F4803309F43D
:1034000055C0883309F0E4C08093FD06D8C08035EC
:1034100009F44FC0883509F45DC0883409F0D8C07C
:10342000D6C0883909F4C7C0A8F4883709F467C042
:1034300038F4883609F463C0803709F460C0C8C026
:10344000883809F4B8C0803909F45FC0803809F0C1
:10345000BFC05BC0803B09F486C038F4803A09F4F1
:1034600066C0883A09F47FC0B3C0803C09F4A7C0A5
:10347000883C09F4A4C0883B09F48AC0A9C08091A3
:10348000DA0610C09091FC068091FB06981770F543
:10349000E091FC0681E08E0F8093FC06F0E0E5529F
:1034A000F94F80818093BB0085EC86C08093FD0638
:1034B0008EC0E091FC0681E08E0F8093FC06809127
:1034C000BB00F0E0E552F94F80839091FC068091BB
:1034D000FB066EC0E091FC0681E08E0F8093FC0637
:1034E0008091BB00F0E0E552F94F80838091FE06A9
:1034F00081116DC081E08093D90684EA61C083E0C8
:103500008093FF0610925B09CFCF80915B098032D8
:1035100008F051C0E0915B0981E08E0F80935B0958
:103520008091BB00F0E0E55CF64F8083BDCF85EC79
:103530008093BC001092FF0680915B09803230F4CA
:10354000E0915B09F0E0E55CF64F108260915B0969
:1035500070E0E0915E0BF0915F0B8BE399E01995C1
:1035600010925B0935C084E08093FF0610923A09FF
:1035700010923909E091600BF091610B19958091DF
:103580003909811105C081E0809339091092190928
:10359000E0913A0981E08E0F80933A09F0E0E75E0E
:1035A000F64F80818093BB0090913A098091390950
:1035B000981708F479CF85E88093BC0009C085ECA2
:1035C0008093BC001092FF0603C01092FD06F1DB51
:1035D000FF91EF91BF91AF919F918F917F916F91EB
:1035E0005F914F913F912F910F900BBE0F900FBEA7
:1035F0000F901F901895809114098823A9F140918C
:1036000000025091010260910202709103022CE5C8
:1036100039E080915C0B90915D0B0E944E0E811100
:1036200002C080E0089540911509509116096091FB
:10363000170970911809411551056105710591F03F
:103640002CE539E080915C0B90915D0B0E944E0E51
:10365000882339F310921509109216091092170950
:10366000109218091092140981E008958F929F9288
:10367000AF92BF92EF92FF920F931F93CF934B01A4
:103680005C01C42F8091000290910102A09102027E
:10369000B091030288159905AA05BB05F9F0ABDFC7
:1036A000811102C080E020C08CE5E82E89E0F82E70
:1036B00000E012E020E030E0B501A40180915C0B55
:1036C00090915D0B0E94BE0D882361F380920002F1
:1036D00090920102A0920202B0920302809114091A
:1036E000C82BC093140981E0CF911F910F91FF90D7
:1036F000EF90BF90AF909F908F9008954F925F9200
:103700006F927F928F929F92AF92BF92CF92DF92F1
:10371000EF92FF920F931F93CF93DF93EC01423010
:1037200051056105710510F480E077C089859A859F
:10373000AB85BC850196A11DB11D84179507A60711
:10374000B70790F3CB88DC88ED88FE888F898031BD
:1037500029F4BB27A72F962F852F09C0DB01CA01AB
:10376000E7E0B695A79597958795EA95D1F7480133
:1037700059012A013B01C80ED91EEA1EFB1E809189
:10378000000290910102A0910202B0910302C816BA
:10379000D906EA06FB0681F48F898031A1F4B301D2
:1037A000A201552766277727440F551FFA01E45ACF
:1037B000F64F9182808218C040E0C701B60156DF03
:1037C0008111EACFB1CFB301A2014F775527662708
:1037D0007727440F551F440F551FFA01E45AF64F3F
:1037E00080829182A282B382809114098160809349
:1037F00014098A89823080F08D819E81AF81B885DD
:10380000C80ED91EEA1EFB1EC0921509D0921609D9
:10381000E0921709F092180981E0DF91CF911F9192
:103820000F91FF90EF90DF90CF90BF90AF909F905F
:103830008F907F906F905F904F9008958F929F929E
:10384000AF92BF92CF92DF92EF92FF920F931F93AE
:10385000CF93DF93FC0181859285A385B485019682
:10386000A11DB11D84179507A607B70710F480E0C6
:103870005AC083889488A588B6888789803129F4BE
:10388000BB27A72F962F852F09C0DB01CA01C7E0F0
:10389000B695A79597958795CA95D1F7E9016A01DD
:1038A0007B018F01BC01CD01680D791D8A1D9B1D17
:1038B0008090000290900102A0900202B09003025A
:1038C000681579058A059B0591F4F801878980318F
:1038D00099F4DD24EE24FF24C601880F991FFC0112
:1038E000E45AF64F80819181A0E0B0E017C040E03B
:1038F000BDDE8111EACFBBCFE894C7F8DD24EE240A
:10390000FF24C601880F991F880F991FFC01E45AF4
:10391000F64F80819181A281B381BF7088839983A2
:10392000AA83BB8381E0DF91CF911F910F91FF901C
:10393000EF90DF90CF90BF90AF909F908F900895C1
:103940000F931F93CF93DF93CDB7DEB761970FB679
:10395000F894DEBF0FBECDBF8C01CB01F801118200
:10396000108213821282158214824AE0BE016F5FB8
:103970007F4F0E947E37BE016F5F7F4FC801C0DB63
:1039800061960FB6F894DEBF0FBECDBFDF91CF9129
:103990001F910F910895CF93DF93C82F80E60E9467
:1039A000E1106C2F8AEE97E090DA0E94DF1062E05F
:1039B00070E080E690E00E9490118AEE97E03DDA98
:1039C000EC018AEE97E039DA20E030E0382FC901C7
:1039D0008C2B9D2BDF91CF9108950F931F93CF9345
:1039E000DF93CDB7DEB762970FB6F894DEBF0FBE98
:1039F000CDBF8C01CB01F80111821082138212829B
:103A0000158214824AE0BE016F5F7F4F0E945F37CC
:103A1000BE016F5F7F4FC80173DB62960FB6F894EB
:103A2000DEBF0FBECDBFDF91CF911F910F910895E3
:103A3000CF93DF93FC01828D938D892B31F1A0917F
:103A4000B506B091B606EA17FB07F9F0109751F0EA
:103A50005396CD91DC915497988155968C91809591
:103A600089238883868D8E7F868F1092630B1092B8
:103A7000620BF093B606E093B506A389B4899C91D6
:103A80008589892B8C9381E001C080E0DF91CF9103
:103A90000895CF93DF93D82FC62F80E60E94E110C0
:103AA0006D2F8AEE97E011DA6C2F8AEE97E00DDA2F
:103AB000DF91CF910C94DF10CF93C82F80E60E9446
:103AC000E1106C2F8AEE97E000DA0E94DF1061E0CF
:103AD00070E080E690E00E9490118AEE97E0ADD908
:103AE000CF910895CF93C82F87E1D3DF6C2F606A01
:103AF00088E1CFDF8EE2CF91DFCF80E00E9410120D
:103B00008636944069F482E090E09093C1078093F8
:103B1000C00768EC74E083E297E0AFDB82E00895D1
:103B200081E090E09093C1078093C00764ED74E05A
:103B300083E297E0A2DB81E00895CF93DF93FC015D
:103B4000138E128E118E108E178A168A8DE991E0CF
:103B5000958F848F848596EF980F943048F02EECE3
:103B6000280F243028F022EC280F283008F065C0F8
:103B70002DEB30E0378B268B2BE931E0318F208F16
:103B80002CE231E0338F228F943060F02EEC280F3E
:103B9000243040F022EC280F283008F052C0C8E64C
:103BA000D0E051C0C8E6D0E0A8E6B0E02C91943057
:103BB00048F09EEC980F943028F08E53883010F423
:103BC00084E001C081E0822B8883848596EF980F82
:103BD000943058F02EEC280F243038F022EC280FC7
:103BE000283030F020E030E005C02BE630E002C0A5
:103BF0002DE630E0348B238B943010F486500BC0CC
:103C0000823379F0833379F0843379F092EC980F32
:103C1000983068F4892F91E001C0990F8A95EAF7EE
:103C200007C098E005C094E003C092E001C091E0B5
:103C3000958B848D958D0197F1F7CF01DF91CF9111
:103C4000F7CEC0E0D0E0283008F4AECFA0E0B0E07E
:103C5000ADCF4F925F926F927F92AF92BF92CF9211
:103C6000DF92EF92FF920F931F93CF93DF9300D0D9
:103C70001F92CDB7DEB78C0149835A836B837C8357
:103C80005901C12CD12C7601412C82E0582E612C97
:103C9000712C49815A816B817C819E012F5F3F4F3E
:103CA000C801CCDD882351F1D301C201F80105849C
:103CB00004C0880F991FAA1FBB1F0A94D2F7C80E11
:103CC000D91EEA1EFB1E49815A816B817C8187893E
:103CD000803129F088EF9FEFAFEFBFE004C088EF9D
:103CE0009FEFA0E0B0E0481759076A077B0788F20A
:103CF000F501C082D182E282F38281E00F900F90C1
:103D00000F900F90DF91CF911F910F91FF90EF9047
:103D1000DF90CF90BF90AF907F906F905F904F906B
:103D20000895CF93DF93FC012581222311F080E0D9
:103D300048C0EC0180911B088031C1F482E085838A
:103D4000178A108E118E128E80911C0890911D087A
:103D5000A0E0B0E025E0880F991FAA1FBB1F2A959D
:103D6000D1F7838B948BA58BB68B18C08032F9F674
:103D700083E0858340911E0850911F0860912008C0
:103D800070912108478B508F618F728F9F012D5E3C
:103D90003F4F84E098E05DDF882349F284E098E0BB
:103DA0009C8F8B8F81E08C831E821F8218861986E0
:103DB0001A861B861C861D861E861F86188A198AEF
:103DC0001A8ADF91CF9108958F929F92AF92BF92FE
:103DD000CF92DF92EF92FF92CF93DF93C82F88EFBD
:103DE00097E090935D0B80935C0BCC2361F1C53021
:103DF00010F080E00AC140E060E070E0CB0136DC0A
:103E00008823B9F320E1C29FC0011124845B964F3F
:103E1000FC01E254FE4F20812F7759F73C964081F8
:103E2000518162817381443651056105710508F342
:103E30003497C080D180E280F380C114D104E104C2
:103E4000F10421F4D6CFC12CD12C760140E0C7017A
:103E5000B6010CDC882369F28091670990916809AA
:103E60008115924031F6A0916C09AA2309F4C1CFC3
:103E700060916A0970916B096115710509F4B9CFF8
:103E800020916909222309F4B4CFA0931608209346
:103E9000080880E030E041E050E0C82FFA01082E29
:103EA00002C0EE0FFF1F0A94E2F72E173F0739F00A
:103EB0008F5FC83091F789E0809311089ACF809383
:103EC000110820917209309173092115310519F0FB
:103ED00040E050E008C02091800930918109409174
:103EE0008209509183092093090830930A0840936E
:103EF0000B0850930C0846015701860E971EA11C13
:103F0000B11C8092170890921808A0921908B092DC
:103F10001A08E0916D09F0916E09F0931D08E09385
:103F20001C08B0E00E940E3B860E971EA81EB91E0C
:103F300080921E0890921F08A0922008B09221083B
:103F400085E0EE0FFF1F8A95E1F7E150FE4FEF2F5E
:103F5000FF27E6958E0E9F1EA11CB11C80921208B1
:103F600090921308A0921408B092150820916F093E
:103F7000309170092115310521F0A90160E070E050
:103F800008C040917C0950917D0960917E09709133
:103F90007F09D701C60188199909AA09BB09840FAD
:103FA000951FA61FB71F04C0B695A795979587952F
:103FB000CA95D2F780930D0890930E08A0930F082E
:103FC000B0931008853F2FE09207A105B10510F4CA
:103FD0008CE018C0853F9F4FA105B10510F480E12A
:103FE00011C08091880990918909A0918A09B091A6
:103FF0008B0980931E0890931F08A0932008B0930C
:10400000210880E280931B0881E0DF91CF91FF902F
:10401000EF90DF90CF90BF90AF909F908F900895DA
:10402000EF92FF920F931F93CF93DF93EC017B01ED
:104030008A011B821A8288EE93E0A0E0B0E08C83B4
:104040009D83AE83BF8382E792E0998388838DE16D
:1040500090E00E940A3E9A8F898F009779F02DE1B7
:10406000F701DC0101900D922A95E1F74CE050E058
:10407000B801CE010C960E943740188EDF91CF9187
:104080001F910F91FF90EF900895362F90E0FC0163
:10409000E258FC4F4491FC01E25EFC4F2491FC018C
:1040A000E852FD4F9491992309F46CC0442309F41C
:1040B00055C050E0FA013197E231F10508F04EC0E9
:1040C0008827E658FF4F8F4F0C94EE3D809180007B
:1040D0008F7707C0809180008F7D03C08091800022
:1040E000877F809380003AC084B58F7702C084B503
:1040F0008F7D84BD33C08091B0008F7703C08091E5
:10410000B0008F7D8093B00029C0809190008F77A0
:1041100007C0809190008F7D03C080919000877FC1
:10412000809390001BC08091A0008F7707C0809182
:10413000A0008F7D03C08091A000877F8093A000A6
:104140000DC0809120018F7707C0809120018F7D65
:1041500003C080912001877F80932001E92FF0E048
:10416000EE0FFF1FE254FD4FA591B4919FB7F89455
:10417000311104C08C912095282302C0EC912E2B84
:104180002C939FBF08951092B8061092B706109214
:104190000107109222071092FF0681E08093FE062D
:1041A0001092D90661E084E170DF61E085E16DDFA6
:1041B000E9EBF0E080818E7F808380818D7F80833A
:1041C00088E48093B80085E48093BC008BE097E19D
:1041D0009093610B8093600B8CE097E190935F0B61
:1041E00080935E0B0895CF93DF9390E0FC01E25E35
:1041F000FC4F2491FC01E852FD4F8491882361F12A
:1042000090E0880F991FFC01EC59FC4FC591D491A7
:10421000FC01E254FD4FA591B491611109C09FB713
:10422000F8948881209582238883EC912E230BC0FB
:10423000623061F49FB7F8948881322F30958323E0
:104240008883EC912E2B2C939FBF06C08FB7F894D8
:10425000E8812E2B28838FBFDF91CF91089586337D
:1042600008F0865390917B00282F2870977F922B1F
:1042700090937B008770806480937C0080917A00AB
:10428000806480937A0080917A0086FDFCCF8091D3
:1042900078002091790090E0922B08958F929F9260
:1042A000AF92BF92CF92DF92EF92FF926B017C01AF
:1042B00033D24B015C01C114D104E104F104E9F0F3
:1042C0002BD2DC01CB0188199909AA09BB09883EC8
:1042D0009340A105B10578F321E0C21AD108E108A5
:1042E000F10888EE880E83E0981EA11CB11CC11451
:1042F000D104E104F10421F7DECFFF90EF90DF90CD
:10430000CF90BF90AF909F908F900895CF92DF9203
:10431000EF92FF920F931F93CF93DF93CDB7DEB74A
:10432000C054D1400FB6F894DEBF0FBECDBF19D236
:104330000091C9081091CA082091CB083091CC088F
:104340006B017C01C01AD10AE20AF30A40EDC416DF
:1043500047E0D406E104F10418F48091D108C4C008
:104360006093C9087093CA088093CB089093CC08D7
:104370001092C4081092C3081092C2081092C1088B
:104380001092C00862E08091C5082DDF61E070E006
:1043900080E090E083DF61E08091C50824DF60E089
:1043A0008091C50872DE8091C6088551823028F45C
:1043B0008BE291E10197F1F705C064E170E080E0E4
:1043C00090E06CDF62E08091C5080DDF8091D2083B
:1043D00090E08230910538F0880F991F880F991F5F
:1043E00005970197F1F7F89480E00E9461156F3FFF
:1043F0007F4F8F4F9F4F21F41092D108789441C086
:1044000081E00E9461156F3F7F4F8F4F9F4FA1F357
:104410008E010F5F1F4F6E012FEBC21A2EEFD20AD3
:10442000780180E00E946115F701608371838283C7
:10443000938381E00E946115F7016483758386830D
:104440009783F8E0EF0EF11CEC14FD0451F778941B
:1044500020E030E0F801C080D180E280F380448128
:10446000558166817781FFEFCF16DF06EF06FF06E5
:1044700031F04F3F8FEF58076807780721F410920B
:10448000D10880E031C0F90183E0F595E7958A9580
:10449000E1F7E054F74F8081880FC416D506E60691
:1044A000F70608F4816080832F5F3F4F085F1F4F3E
:1044B0002832310579F62091C40830E04091C008D7
:1044C0008091C10890E0840F911D4091C208840F33
:1044D000911D4091C308840F911D99272817390712
:1044E00071F681E08093D108C05CDE4F0FB6F8947E
:1044F000DEBF0FBECDBFDF91CF911F910F91FF9017
:10450000EF90DF90CF9008954F925F926F927F92DD
:104510008F929F92AF92BF92CF92DF92EF92FF92D3
:1045200020D12B013C0128EE420E23E0521E611CDB
:10453000711C812C912C5401C12CD12C76018091BD
:1045400084088DDE092E000CAA0BBB0B880E991E69
:10455000AA1EBB1E61E070E080E090E09FDE8FEF5E
:10456000C81AD80AE80AF80AFCD064157505860549
:10457000970528F3C501B4010E94F9394B015C018C
:10458000C701B6010E94F9399B01AC01C501B40114
:104590000E948C3B20E030E040EA50E40E945A3A0E
:1045A00020E030E04AE754E40E945A3A20E030E04C
:1045B00040E85AE30E945A3AFF90EF90DF90CF9084
:1045C000BF90AF909F908F907F906F905F904F9033
:1045D00008954F925F926F927F928F929F92AF92C7
:1045E000BF92CF92DF92EF92FF927C01BAD028EE79
:1045F00033E0E29E2001E39E500CF29E500C112409
:10460000052C000C66087708460E571E681E791E9A
:10461000812C912C5401C12CD12C760180918608DB
:104620001EDE092E000CAA0BBB0B880E991EAA1EBB
:10463000BB1E61E070E080E090E030DE4FEFC41A16
:10464000D40AE40AF40A8DD0641575058605970529
:1046500028F3C501B4010E94F9394B015C01C7017F
:10466000B6010E94F9399B01AC01C501B4010E9459
:104670008C3B20E030E040EA50E40E945A3A20E0CF
:1046800030E040E85AE30E945A3A6B017C0123E390
:1046900033E343E550E46091A0087091A108809154
:1046A000A2089091A3080E948C3B9B01AC01C7011A
:1046B000B6010E945A3A20919C0830919D08409181
:1046C0009E0850919F080E94273B20EE34E0225E16
:1046D000344091F420E030E040E151E40E945A3A45
:1046E00020E030E040EA50E40E948C3B20E030E0E3
:1046F00040E052E40E94283B0E94F43BCB01FF9033
:10470000EF90DF90CF90BF90AF909F908F907F9071
:104710006F905F904F9008953FB7F89480916A0B27
:1047200090916B0BA0916C0BB0916D0B26B5A89B73
:1047300005C02F3F19F00196A11DB11D3FBFBA2F33
:10474000A92F982F8827820F911DA11DB11DBC0193
:10475000CD0142E0660F771F881F991F4A95D1F758
:1047600008952FB7F8946091660B7091670B809154
:10477000680B9091690B2FBF08951F920F920FB68F
:104780000F9211242F933F938F939F93AF93BF93D7
:104790008091660B9091670BA091680BB091690BAB
:1047A0003091650B23E0230F2D3720F40196A11DD6
:1047B000B11D05C026E8230F0296A11DB11D20934F
:1047C000650B8093660B9093670BA093680BB09377
:1047D000690B80916A0B90916B0BA0916C0BB0915F
:1047E0006D0B0196A11DB11D80936A0B90936B0B0D
:1047F000A0936C0BB0936D0BBF91AF919F918F9174
:104800003F912F910F900FBE0F901F901895CF934F
:10481000DF93CDB7DEB7CF5ED1090FB6F894DEBF18
:104820000FBECDBF789484B5826084BD84B58160AD
:1048300084BD85B5826085BD85B5816085BD80916B
:104840006E00816080936E001092810080918100E3
:1048500082608093810080918100816080938100DB
:10486000809180008160809380008091B10084609D
:104870008093B1008091B00081608093B0008091FE
:10488000910082608093910080919100816080937B
:104890009100809190008160809390008091A100B0
:1048A00082608093A1008091A10081608093A1002B
:1048B0008091A00081608093A0008091210182609E
:1048C0008093210180912101816080932101809159
:1048D000200181608093200180917A008460809320
:1048E0007A0080917A00826080937A0080917A00C9
:1048F000816080937A0080917A00806880937A004A
:104900001092C100E0913307F091340782E0808378
:10491000E0912F07F09130071082E0913107F0917C
:1049200032078FEC808310923B07E0913707F091BC
:10493000380786E08083E0913507F0913607808163
:1049400080618083E0913507F0913607808188602F
:104950008083E0913507F0913607808180688083FD
:10496000E0913507F091360780818F7D808362E08A
:104970008091C50838DCF5DEDC01CB01805D974015
:10498000A109B1098093C9089093CA08A093CB08E4
:10499000B093CC0887E38093D208809127088823BE
:1049A00021F082E298E00E94270D109203081092F5
:1049B00001081092FE071092FD0785E38093FC0723
:1049C000D0DE8B0161E08091FC070DDC61E080911D
:1049D000FC075BDBFFB6F8948091E404811123C0EF
:1049E000EDE0F3E08491E3E5F3E09491E82FF0E06B
:1049F000EE0FFF1FEC59FC4FA591B491EC91E92308
:104A000019F461E085E341DB61E085E3ECDB8CB523
:104A100080618CBD8CB580648CBD61E084E3E3DB98
:104A200061E083E3E0DB8091E4048F5F8093E40442
:104A3000FFBE82E58093F6071092F7078091F60794
:104A40009091F7070E941C036AE0F62E8FEF0E94F8
:104A50001303FA94F110FACF88EF97E00E94380D13
:104A600020E030E0A90160E088EF97E00E94720D3D
:104A7000F82E8093020821E0821741F072DE601B5D
:104A8000710B613D774060F381E055C02AEA31E067
:104A900040E050E068E088EF97E00E94720D82FFEE
:104AA00003C0F092030810C054E0F52E0E941A03D0
:104AB00080930208FA94F110F9CF8A3A11F082E05B
:104AC0003AC082E08093030880910308823031F479
:104AD000C12CD12CE12C40E4F42E03C0C12CD12CEC
:104AE000760120E030E0A90167E388EF97E00E94BB
:104AF000720DA701960169E288EF97E00E94720D9E
:104B000080930208882341F02CDE601B710B613D0D
:104B1000774038F388E00FC080910308823001F5B8
:104B200020E030E0A9016AE388EF97E00E94720D6F
:104B3000882341F086E08093FD0788EF97E00E948C
:104B40004E0D2EC00E941A03807C803C19F483E035
:104B5000809303080E941A030E941A030E941A03FA
:104B600088EF97E00E944E0D80E58093F607109243
:104B7000F70781E029D9882379F082E298E0D1D83B
:104B8000882371F00E94D2051E019FE1290E311C7D
:104B90008E010F5F1F4F7AC080E016D98111EDCFD3
:104BA00060E872E083E297E00E943D19FFCF1AA20D
:104BB00019A284E492E098A38F8F1CA222968FAD55
:104BC0002297811185C46D961FAE1EAE6D9788EE3B
:104BD00093E0A0E0B0E0A1968CAF9DAFAEAFBFAFC9
:104BE000A19782E792E06B969FAF8EAF6B97E496AA
:104BF0001FAE1EAEE497A6961FAEA6976D968EAD1D
:104C00009FAD6D979093F5088093F408A1968CADB5
:104C10009DADAEADBFADA1978093F6089093F70818
:104C2000A093F808B093F908A5968CAD9DADAEADF4
:104C3000BFADA5978093FA089093FB08A093FC085A
:104C4000B093FD08A9E5B0E0AC0FBD1F1C96EEEFD8
:104C5000F8E08D91819329E0EB30F207D1F7E496EB
:104C60008EAD9FADE49790930C0980930B0966E994
:104C700073E081E498E00E948018E0910B09F091C4
:104C80000C09309709F046C40E94A11685E698E009
:104C90000E94181D66E573E0CE0182539F4F0E946B
:104CA000E61867E972E0CE0188539F4F0E94E6182C
:104CB00069E972E0CE018E539F4F0E94E6186BE9BE
:104CC00072E0CE0184549F4F0E94E6186BE972E0B7
:104CD000CE018A549F4F0E94E61860EA72E0CE012E
:104CE00080559F4F0E94E6186BE972E0CE01865511
:104CF0009F4F0E94E61866E973E0CE01875A9F4FE6
:104D00000E94E618DE0111965D017D0166E973E0FF
:104D1000C7010E94E618B6E0EB0EF11C2E143F040A
:104D2000A9F7C1010E94780567EA72E085E698E07C
:104D30000E943D1960E971E080E090E0AFDA60E93F
:104D400071E080E090E0AADACE01CC960E948D0559
:104D5000BE01645C7F4FCE01875A9F4F0E940418AA
:104D6000CE01CC960E94AA18C12CD12C64EB72E023
:104D7000CE01CC960E94E6186F968EAD9FAD6F97D0
:104D8000C816D90688F46B968EAC9FAC6B976CAD49
:104D90007DADC4018C0D9D1D0E944640009721F001
:104DA0007C01E818F90803C0EE24EA94FE2CCE0139
:104DB000CC960E94AA18EFEFEE16FE06E1F1FFEF87
:104DC000EF1AFF0A64EB72E0CE01CC960E94E6185F
:104DD0006F968EAD9FAD6F97E816F90688F46B96C7
:104DE0008EAC9FAC6B976CAD7DADC4018E0D9F1DDD
:104DF0000E944640009721F06C01C818D90803C0F2
:104E0000CC24CA94DC2CCE01CC960E94AA18960120
:104E1000A701BE01675A7F4FCE01CC960E94FA18B7
:104E2000BE01645C7F4FC5010E940418CE01CC9680
:104E30000E94AA1803C0CC24CA94DC2C26E0A20E3F
:104E4000B11C2A143B0409F091CFBE01695F7F4F6A
:104E5000CE018B960E949518BE01635F7F4FC10102
:104E60000E949518BE016D5E7F4FCE0185960E940F
:104E70009518710136E0E31AF108C7010E94AA18DB
:104E80000E151F05B9F7CE01875A9F4F0E94AA1829
:104E9000B10183E598E00E940418BE016B5D7F4F6D
:104EA00089E598E00E940418BE01655D7F4F8FE59B
:104EB00098E00E940418CE018B960E94AA18CE0199
:104EC00085960E94AA18C1010E94AA1863E578E09D
:104ED000C1010E94DE18B101C8010E94DE186CE217
:104EE000C8010E94BA14BC01CE0182539F4F0E9498
:104EF0009518C8010E94AA18C1010E94AA18BE01F3
:104F000068537F4FC8010E94DE186CE2C8010E94FE
:104F1000BA14BC01CE0182539F4F0E94FE17C801F4
:104F20000E94AA1869E578E0C1010E94DE18B1016B
:104F3000C8010E94DE186CE2C8010E94BA14BC01CC
:104F4000CE0182539F4F0E94FE17C8010E94AA18EB
:104F5000C1010E94AA18BE016E537F4FC8010E9472
:104F6000DE186CE2C8010E94BA14BC01CE01825363
:104F70009F4F0E94FE17C8010E94AA18BE016A54E2
:104F80007F4FC8010E94DE186CE2C8010E94BA146B
:104F9000BC01CE0182539F4F0E94FE17C8010E94A0
:104FA000AA18BE0164547F4FC8010E94DE186CE24B
:104FB000C8010E94BA14BC01CE0182539F4F0E94C7
:104FC000FE17C8010E94AA18BE0166557F4FC8018E
:104FD0000E94DE186CE2C8010E94BA14BC01CE0126
:104FE00082539F4F0E94FE17C8010E94AA186FE5C6
:104FF00078E0CE018C559F4F0E94DE18BE016C55A3
:105000007F4FCE0188569F4F0E94DE1824E030E08B
:1050100042E050E0BE0168567F4FCE018E569F4F52
:105020000E94FA1826E030E044E050E0BE016856E5
:105030007F4FCE0184579F4F0E94FA1828E030E03E
:1050400046E050E0BE0168567F4FCE018A579F4F21
:105050000E94FA182AE030E048E050E0BE016856AD
:105060007F4FCE0180589F4F0E94FA182CE030E00D
:105070004AE050E0BE0168567F4FCE0186589F4FF0
:105080000E94FA182EE030E04CE050E0BE01685675
:105090007F4FCE018C589F4F0E94FA1866E573E04F
:1050A000CE01875A9F4F0E94E61866EB72E0CE0150
:1050B000CC960E94E61868EB72E0C1010E94E618E7
:1050C000BE016E567F4FC8010E94DE18BE01645CAF
:1050D0007F4FC8010E945018BE0164577F4F0E9445
:1050E0005018BE01645C7F4F0E945018BE016A5781
:1050F0007F4F0E945018BE01675A7F4F0E94501880
:10510000BE0160587F4F0E945018B1010E94501894
:10511000BE0166587F4F0E945018B1010E9450187E
:10512000BE016C587F4F0E945018BC01CE018256C0
:105130009F4F0E94DE18C8010E94AA18C1010E9458
:10514000AA18CE01CC960E94AA18CE01875A9F4F6A
:105150000E94AA18CE018C589F4F0E94AA18CE0117
:1051600086589F4F0E94AA18CE0180589F4F0E94D8
:10517000AA18CE018A579F4F0E94AA18CE018457C1
:105180009F4F0E94AA18CE018E569F4F0E94AA18C8
:10519000CE0188569F4F0E94AA18BE0162567F4FCB
:1051A000C8010E94DE186CE2C8010E94BA14BC015A
:1051B000CE0182539F4F0E94FE17C8010E94AA1879
:1051C000CE0182569F4F0E94AA18CE018C559F4F48
:1051D0000E94AA18BE0160557F4FC8010E94DE18C8
:1051E0006CE2C8010E94BA14BC01CE0182539F4FE9
:1051F0000E94FE17C8010E94AA18CE0186559F4F33
:105200000E94AA18CE0180559F4F0E94AA18CE0175
:105210008A549F4F0E94AA18CE0184549F4F0E9427
:10522000AA18CE018E539F4F0E94AA18CE01885310
:105230009F4F0E94AA18BE0162537F4F8DE498E0F1
:105240000E940418CE0182539F4F0E94AA186FE556
:1052500078E0CE01875A9F4F0E94DE18BE01675A40
:105260007F4FC1010E94DE1824E030E042E050E0B0
:10527000B101C8010E94FA18B801CE01CC960E9473
:10528000DE18C8010E94AA18C1010E94AA188CAD9C
:105290009DAD009719F00E94393702C060E070E0C0
:1052A000D62EC72E6FE578E0CE0186589F4F0E941C
:1052B000DE18BE0166587F4FC1010E94DE1826E04D
:1052C00030E044E050E0B101C8010E94FA18B80192
:1052D000CE018C589F4F0E94DE18C8010E94AA1868
:1052E000C1010E94AA18E6968EAD9FADE697009781
:1052F00019F00E94393702C060E070E0F62EE72E08
:105300006FE578E0CE018A579F4F0E94DE18BE01FC
:105310006A577F4FC1010E94DE1828E030E046E066
:1053200050E0B101C8010E94FA18B801CE018058BE
:105330009F4F0E94DE18C8010E94AA18C1010E9456
:10534000AA18C058DF4F88819981C058D040009773
:1053500019F00E94393702C060E070E0CF92DF920E
:10536000EF92FF927F936F938AEB92E09F938F93DC
:1053700081E496E09F938F930E946040CE01805815
:105380009F4F0E94AA18CE018A579F4F0E94AA18C9
:10539000CE018C589F4F0E94AA18CE0186589F4F6D
:1053A0000E94AA18CE01CC960E94AA18CE01875A54
:1053B0009F4F0E94AA181AA219A284E492E098A30F
:1053C0008F8F1CA21C821B829A8389831E82C1013B
:1053D0000E94911E0FB6F894DEBF0FBECDBF7801BC
:1053E000410181E4A82E86E0B82E6FE270E0C5018D
:1053F0000E942540009709F447C0D5012C912F3217
:1054000071F4BFEFAB1ABB0A9E2D8F2D7401892E4C
:10541000982E982D892D4701E92EF82EE6CF8A196E
:105420008D3008F08CE0C82ED12CA601B501CE013C
:10543000875A9F4F0E943740E9E5F0E0EC0FFD1FCF
:10544000EC0DFD1D1082C7010E94270DF70185811B
:10545000882351F01FAE1EAE84E492E09DAF8CAF66
:1054600022961FAE22971EC021E0AE01475A5F4F21
:10547000B401C7010E94700B882361F3AC0CBD1C02
:10548000C4010E94270DC5CF950121543640C25159
:10549000DF4F39832883CE5ED040B401CE01CC9655
:1054A0000E941F03C251DF4F88819981CE5ED04098
:1054B0008F5B994F7C01DC018C91811178CBBE010F
:1054C000645C7F4FC8010E941F034DEC52E01BC07B
:1054D00027E1A701BE01645C7F4FC1010E94700BF0
:1054E000882309F470CBCE01CC960E94270D4AA9DF
:1054F0005BA96CA97DA9C1010E94DF09B101C801A6
:105500000E941F03A701B801CE01875A9F4F0E9436
:10551000102074CB8581882309F4B6CB66E573E04F
:10552000CE01CC960E94E6180E948621882309F4B9
:1055300040C08091C6088B30E0F18D30A8F08551D5
:105540008230B8F56091C0087091C108762767274E
:10555000762780E090E00E94F9392DEC3CEC4CEC91
:105560005DE30E945A3A1CC06091C10870E080E07F
:1055700090E00E94FB392DEC3CEC4CEC5DE30E948A
:105580005A3A6B017C016091C00870E080E090E0C5
:105590000E94FB399B01AC01C701B6010E94283B68
:1055A000CC52DF4F688379838A839B83C45DD0406C
:1055B0000CC080E090E0A0ECBFE7CC52DF4F8883C6
:1055C0009983AA83BB83C45DD0400E94862188232F
:1055D00061F080E00E94D714C452DF4F6883798362
:1055E0008A839B83CC5DD0400CC080E090E0A0EC2F
:1055F000BFE7C452DF4F88839983AA83BB83CC5D06
:10560000D0400E948621882331F081E00E94D71487
:105610006B017C0106C0C12CD12CB0ECEB2EBFE796
:10562000FB2E20E030E048E852E4C701B6010E94BA
:10563000273B2AE939E949E95FE30E945A3A4B01DD
:105640005C0120E030E044E752E4C701B6010E946B
:10565000283B9B01AC01C501B4010E94283B4B01D2
:105660005C0122E133E840EC5DE3CC52DF4F68811E
:1056700079818A819B81C45DD0400E945A3A9B0106
:10568000AC01C501B4010E94283B20E030E040E0BD
:105690005FE30E945A3A4B015C0120E030E04EE9A2
:1056A00052E40E94253C18160CF09AC1A7019601FD
:1056B000C701B6010E945A3A4B015C01CC52DF4F40
:1056C000288139814A815B81C45DD040CA01B9011A
:1056D0000E945A3AC852DF4F688379838A839B833A
:1056E000C85DD04021E133E243E050E4C701B60198
:1056F0000E945A3A29E134E849E252E40E94273BE9
:105700002B013C0126E13BE442E251E4CC52DF4F65
:10571000688179818A819B81C45DD0400E945A3A18
:105720009B01AC01C301B2010E94283B2B013C014B
:1057300028E436E246E65EEBC701B6010E945A3A1B
:10574000CC52DF4F288139814A815B81C45DD040D2
:105750000E945A3A9B01AC01C301B2010E94283B4E
:105760002B013C0120EE3FE040EE5BEBC501B401B4
:105770000E945A3A9B01AC01C301B2010E94283B2E
:105780002B013C0128EF37E840E65DEBC852DF4FC4
:10579000688179818A819B81C85DD0400E945A3A94
:1057A0009B01AC01C301B2010E94283B2B013C01CB
:1057B0002CEA3DE041EA5AE3C501B4010E945A3A9D
:1057C000CC52DF4F288139814A815B81C45DD04052
:1057D0000E945A3A9B01AC01C301B2010E94283BCE
:1057E0002B013C0128EC3FE84FE55AE3C701B60125
:1057F0000E945A3AC852DF4F288139814A815B8121
:10580000C85DD0400E945A3A9B01AC01C301B2016D
:105810000E94283B2B013C0121EF3BE845E056EB81
:10582000C501B4010E945A3AC852DF4F288139811C
:105830004A815B81C85DD0400E945A3A9B01AC010D
:10584000C301B2010E94283B4B015C0120E030E023
:1058500040E551E4CC52DF4F688179818A819B8198
:10586000C45DD0400E94F53987FF63C020E030E07E
:1058700040EA52E4C701B6010E94253C87FD59C0A9
:1058800020E030E040EE52E4C701B6010E94F53955
:10589000181614F40C944035CC52DF4F288139810E
:1058A0004A815B81C45DD04060E070E080E591E4B6
:1058B0000E94273B20E030E040E85EE30E945A3A35
:1058C0002B013C0120E030E04EEB52E4C701B60171
:1058D0000E94273B6B017C0120E030E0A9010E947F
:1058E000253C18164CF4A701960160E070E088E8AA
:1058F00091E40E94273B08C020E030E048E851E4F2
:10590000C701B6010E94283B2EE33DEE40E75DE370
:105910000E945A3A0E94793C9B01AC01C301B2013A
:105920000E945A3A9B01AC01C501B4010E94273B79
:1059300055C020E030E04AEA52E4CC52DF4F6881A3
:1059400079818A819B81C45DD0400E94253C1816D4
:105950000CF046C020E030E040EA52E4C701B60156
:105960000E94253C87FD3CC020E030E04EEA52E436
:10597000C701B6010E94F539181694F120E030E015
:105980004AEA52E4CC52DF4F688179818A819B8157
:10599000C45DD0400E94273B2DEC3CEC4CEC5DE319
:1059A0000E945A3A2B013C01A701960160E070E089
:1059B0008EEA92E40E94273B2DEC3CEC4CE45EE343
:1059C0000E945A3A9B01AC01C301B2010E945A3AAB
:1059D0009B01AC01C501B4010E94283B4B015C0155
:1059E00022E0CC52DF4F488159816A817B81C45DBE
:1059F000D040C1010E94AF18B101C8010E94DE1859
:105A00006CE2C8010E94BA14BC01CE01CC960E947F
:105A10009518C8010E94AA18C1010E94AA1822E084
:105A2000C452DF4F488159816A817B81CC5DD0406F
:105A3000C1010E94AF18B101C8010E94DE186CE2DA
:105A4000C8010E94BA14BC01CE01CC960E94FE1778
:105A5000C8010E94AA18C1010E94AA1822E0B5013B
:105A6000A401C8010E94AF18B801CE01CC960E94D3
:105A7000FE17C8010E94AA18CE01CC960E944705C5
:105A8000CE01CC960E94AA1866E573E0CE01865836
:105A90009F4F0E94E6188CE20E94CB1CBC0180E064
:105AA00090E00E94F93920E030E048EC52E40E9496
:105AB0008C3BAB01BC0122E0CE018C589F4F0E9471
:105AC000AF1882E20E94CB1CBC01CE01875A9F4FC7
:105AD0000E94A01C84E20E94CB1CBC01CE01CC968B
